{"abi":[{"type":"constructor","inputs":[],"stateMutability":"nonpayable"},{"type":"function","name":"acceptTransfer","inputs":[{"name":"transferId","type":"uint256","internalType":"uint256"}],"outputs":[],"stateMutability":"nonpayable"},{"type":"function","name":"addressToUserId","inputs":[{"name":"","type":"address","internalType":"address"}],"outputs":[{"name":"","type":"uint256","internalType":"uint256"}],"stateMutability":"view"},{"type":"function","name":"admin","inputs":[],"outputs":[{"name":"","type":"address","internalType":"address"}],"stateMutability":"view"},{"type":"function","name":"changeStatusUser","inputs":[{"name":"userAddress","type":"address","internalType":"address"},{"name":"newStatus","type":"uint8","internalType":"enum SupplyChain.UserStatus"}],"outputs":[],"stateMutability":"nonpayable"},{"type":"function","name":"createToken","inputs":[{"name":"name","type":"string","internalType":"string"},{"name":"totalSupply","type":"uint256","internalType":"uint256"},{"name":"features","type":"string","internalType":"string"},{"name":"parentId","type":"uint256","internalType":"uint256"}],"outputs":[],"stateMutability":"nonpayable"},{"type":"function","name":"getToken","inputs":[{"name":"tokenId","type":"uint256","internalType":"uint256"}],"outputs":[{"name":"","type":"tuple","internalType":"struct SupplyChain.Token","components":[{"name":"id","type":"uint256","internalType":"uint256"},{"name":"creator","type":"address","internalType":"address"},{"name":"name","type":"string","internalType":"string"},{"name":"totalSupply","type":"uint256","internalType":"uint256"},{"name":"features","type":"string","internalType":"string"},{"name":"parentId","type":"uint256","internalType":"uint256"},{"name":"dateCreated","type":"uint256","internalType":"uint256"}]}],"stateMutability":"view"},{"type":"function","name":"getTokenBalance","inputs":[{"name":"tokenId","type":"uint256","internalType":"uint256"},{"name":"userAddress","type":"address","internalType":"address"}],"outputs":[{"name":"","type":"uint256","internalType":"uint256"}],"stateMutability":"view"},{"type":"function","name":"getTransfer","inputs":[{"name":"transferId","type":"uint256","internalType":"uint256"}],"outputs":[{"name":"","type":"tuple","internalType":"struct SupplyChain.Transfer","components":[{"name":"id","type":"uint256","internalType":"uint256"},{"name":"from","type":"address","internalType":"address"},{"name":"to","type":"address","internalType":"address"},{"name":"tokenId","type":"uint256","internalType":"uint256"},{"name":"dateCreated","type":"uint256","internalType":"uint256"},{"name":"amount","type":"uint256","internalType":"uint256"},{"name":"status","type":"uint8","internalType":"enum SupplyChain.TransferStatus"}]}],"stateMutability":"view"},{"type":"function","name":"getUserInfo","inputs":[{"name":"userAddress","type":"address","internalType":"address"}],"outputs":[{"name":"","type":"tuple","internalType":"struct SupplyChain.User","components":[{"name":"id","type":"uint256","internalType":"uint256"},{"name":"userAddress","type":"address","internalType":"address"},{"name":"role","type":"string","internalType":"string"},{"name":"status","type":"uint8","internalType":"enum SupplyChain.UserStatus"}]}],"stateMutability":"view"},{"type":"function","name":"getUserTokens","inputs":[{"name":"userAddress","type":"address","internalType":"address"}],"outputs":[{"name":"","type":"uint256[]","internalType":"uint256[]"}],"stateMutability":"view"},{"type":"function","name":"getUserTransfers","inputs":[{"name":"userAddress","type":"address","internalType":"address"}],"outputs":[{"name":"","type":"uint256[]","internalType":"uint256[]"}],"stateMutability":"view"},{"type":"function","name":"isAdmin","inputs":[{"name":"userAddress","type":"address","internalType":"address"}],"outputs":[{"name":"","type":"bool","internalType":"bool"}],"stateMutability":"view"},{"type":"function","name":"nextTokenId","inputs":[],"outputs":[{"name":"","type":"uint256","internalType":"uint256"}],"stateMutability":"view"},{"type":"function","name":"nextTransferId","inputs":[],"outputs":[{"name":"","type":"uint256","internalType":"uint256"}],"stateMutability":"view"},{"type":"function","name":"nextUserId","inputs":[],"outputs":[{"name":"","type":"uint256","internalType":"uint256"}],"stateMutability":"view"},{"type":"function","name":"rejectTransfer","inputs":[{"name":"transferId","type":"uint256","internalType":"uint256"}],"outputs":[],"stateMutability":"nonpayable"},{"type":"function","name":"requestUserRole","inputs":[{"name":"role","type":"string","internalType":"string"}],"outputs":[],"stateMutability":"nonpayable"},{"type":"function","name":"tokens","inputs":[{"name":"","type":"uint256","internalType":"uint256"}],"outputs":[{"name":"id","type":"uint256","internalType":"uint256"},{"name":"creator","type":"address","internalType":"address"},{"name":"name","type":"string","internalType":"string"},{"name":"totalSupply","type":"uint256","internalType":"uint256"},{"name":"features","type":"string","internalType":"string"},{"name":"parentId","type":"uint256","internalType":"uint256"},{"name":"dateCreated","type":"uint256","internalType":"uint256"}],"stateMutability":"view"},{"type":"function","name":"transfer","inputs":[{"name":"to","type":"address","internalType":"address"},{"name":"tokenId","type":"uint256","internalType":"uint256"},{"name":"amount","type":"uint256","internalType":"uint256"}],"outputs":[],"stateMutability":"nonpayable"},{"type":"function","name":"transfers","inputs":[{"name":"","type":"uint256","internalType":"uint256"}],"outputs":[{"name":"id","type":"uint256","internalType":"uint256"},{"name":"from","type":"address","internalType":"address"},{"name":"to","type":"address","internalType":"address"},{"name":"tokenId","type":"uint256","internalType":"uint256"},{"name":"dateCreated","type":"uint256","internalType":"uint256"},{"name":"amount","type":"uint256","internalType":"uint256"},{"name":"status","type":"uint8","internalType":"enum SupplyChain.TransferStatus"}],"stateMutability":"view"},{"type":"function","name":"users","inputs":[{"name":"","type":"uint256","internalType":"uint256"}],"outputs":[{"name":"id","type":"uint256","internalType":"uint256"},{"name":"userAddress","type":"address","internalType":"address"},{"name":"role","type":"string","internalType":"string"},{"name":"status","type":"uint8","internalType":"enum SupplyChain.UserStatus"}],"stateMutability":"view"},{"type":"event","name":"TokenCreated","inputs":[{"name":"tokenId","type":"uint256","indexed":true,"internalType":"uint256"},{"name":"creator","type":"address","indexed":true,"internalType":"address"},{"name":"name","type":"string","indexed":false,"internalType":"string"},{"name":"totalSupply","type":"uint256","indexed":false,"internalType":"uint256"}],"anonymous":false},{"type":"event","name":"TransferAccepted","inputs":[{"name":"transferId","type":"uint256","indexed":true,"internalType":"uint256"}],"anonymous":false},{"type":"event","name":"TransferRejected","inputs":[{"name":"transferId","type":"uint256","indexed":true,"internalType":"uint256"}],"anonymous":false},{"type":"event","name":"TransferRequested","inputs":[{"name":"transferId","type":"uint256","indexed":true,"internalType":"uint256"},{"name":"from","type":"address","indexed":true,"internalType":"address"},{"name":"to","type":"address","indexed":true,"internalType":"address"},{"name":"tokenId","type":"uint256","indexed":false,"internalType":"uint256"},{"name":"amount","type":"uint256","indexed":false,"internalType":"uint256"}],"anonymous":false},{"type":"event","name":"UserRoleRequested","inputs":[{"name":"user","type":"address","indexed":true,"internalType":"address"},{"name":"role","type":"string","indexed":false,"internalType":"string"}],"anonymous":false},{"type":"event","name":"UserStatusChanged","inputs":[{"name":"user","type":"address","indexed":true,"internalType":"address"},{"name":"status","type":"uint8","indexed":false,"internalType":"enum SupplyChain.UserStatus"}],"anonymous":false}],"bytecode":{"object":"0x6080604052600180556001600255600160035534801561001d575f5ffd5b50335f5f6101000a81548173ffffffffffffffffffffffffffffffffffffffff021916908373ffffffffffffffffffffffffffffffffffffffff160217905550604051806080016040528060035481526020013373ffffffffffffffffffffffffffffffffffffffff1681526020016040518060400160405280600581526020017f41646d696e0000000000000000000000000000000000000000000000000000008152508152602001600160038111156100db576100da6101e7565b5b81525060065f60035481526020019081526020015f205f820151815f01556020820151816001015f6101000a81548173ffffffffffffffffffffffffffffffffffffffff021916908373ffffffffffffffffffffffffffffffffffffffff16021790555060408201518160020190816101549190610451565b506060820151816003015f6101000a81548160ff0219169083600381111561017f5761017e6101e7565b5b021790555090505060035460075f3373ffffffffffffffffffffffffffffffffffffffff1673ffffffffffffffffffffffffffffffffffffffff1681526020019081526020015f208190555060035f8154809291906101dd9061054d565b9190505550610594565b7f4e487b71000000000000000000000000000000000000000000000000000000005f52602160045260245ffd5b5f81519050919050565b7f4e487b71000000000000000000000000000000000000000000000000000000005f52604160045260245ffd5b7f4e487b71000000000000000000000000000000000000000000000000000000005f52602260045260245ffd5b5f600282049050600182168061028f57607f821691505b6020821081036102a2576102a161024b565b5b50919050565b5f819050815f5260205f209050919050565b5f6020601f8301049050919050565b5f82821b905092915050565b5f600883026103047fffffffffffffffffffffffffffffffffffffffffffffffffffffffffffffffff826102c9565b61030e86836102c9565b95508019841693508086168417925050509392505050565b5f819050919050565b5f819050919050565b5f61035261034d61034884610326565b61032f565b610326565b9050919050565b5f819050919050565b61036b83610338565b61037f61037782610359565b8484546102d5565b825550505050565b5f5f905090565b610396610387565b6103a1818484610362565b505050565b5b818110156103c4576103b95f8261038e565b6001810190506103a7565b5050565b601f821115610409576103da816102a8565b6103e3846102ba565b810160208510156103f2578190505b6104066103fe856102ba565b8301826103a6565b50505b505050565b5f82821c905092915050565b5f6104295f198460080261040e565b1980831691505092915050565b5f610441838361041a565b9150826002028217905092915050565b61045a82610214565b67ffffffffffffffff8111156104735761047261021e565b5b61047d8254610278565b6104888282856103c8565b5f60209050601f8311600181146104b9575f84156104a7578287015190505b6104b18582610436565b865550610518565b601f1984166104c7866102a8565b5f5b828110156104ee578489015182556001820191506020850194506020810190506104c9565b8683101561050b5784890151610507601f89168261041a565b8355505b6001600288020188555050505b505050505050565b7f4e487b71000000000000000000000000000000000000000000000000000000005f52601160045260245ffd5b5f61055782610326565b91507fffffffffffffffffffffffffffffffffffffffffffffffffffffffffffffffff820361058957610588610520565b5b600182019050919050565b614722806105a15f395ff3fe608060405234801561000f575f5ffd5b5060043610610135575f3560e01c80638782dc00116100b6578063b85b381b1161007a578063b85b381b14610390578063c16fe907146103ae578063d67b2d08146103de578063e4b50cb8146103fa578063ef57e2d21461042a578063f851a4401461045a57610135565b80638782dc00146102d45780638b2d19c0146102f05780639377d7111461030c578063a1e6a25514610342578063b5ffbbcc1461036057610135565b8063365b98b2116100fd578063365b98b2146101ed5780634f64b2be14610220578063519dc8d2146102565780636386c1c71461028657806375794a3c146102b657610135565b8063095bcdb61461013957806312effc321461015557806324d7806c14610171578063274fae7c146101a1578063335d3410146101bd575b5f5ffd5b610153600480360381019061014e9190612e42565b610478565b005b61016f600480360381019061016a9190612e92565b610a3b565b005b61018b60048036038101906101869190612ebd565b610bf8565b6040516101989190612f02565b60405180910390f35b6101bb60048036038101906101b69190612e92565b610c4f565b005b6101d760048036038101906101d29190612ebd565b610fe0565b6040516101e49190612fd2565b60405180910390f35b61020760048036038101906102029190612e92565b6113f5565b60405161021794939291906130f3565b60405180910390f35b61023a60048036038101906102359190612e92565b6114d2565b60405161024d979695949392919061313d565b60405180910390f35b610270600480360381019061026b9190612ebd565b61163b565b60405161027d9190612fd2565b60405180910390f35b6102a0600480360381019061029b9190612ebd565b6117be565b6040516102ad919061327e565b60405180910390f35b6102be611995565b6040516102cb919061329e565b60405180910390f35b6102ee60048036038101906102e991906132da565b61199b565b005b61030a60048036038101906103059190613444565b611b3a565b005b61032660048036038101906103219190612e92565b611d5a565b60405161033997969594939291906134d1565b60405180910390f35b61034a611de2565b604051610357919061329e565b60405180910390f35b61037a60048036038101906103759190612ebd565b611de8565b604051610387919061329e565b60405180910390f35b610398611dfd565b6040516103a5919061329e565b60405180910390f35b6103c860048036038101906103c39190612e92565b611e03565b6040516103d591906135d9565b60405180910390f35b6103f860048036038101906103f391906135f2565b611f83565b005b610414600480360381019061040f9190612e92565b612478565b604051610421919061372e565b60405180910390f35b610444600480360381019061043f919061374e565b612689565b604051610451919061329e565b60405180910390f35b6104626126df565b60405161046f919061378c565b60405180910390f35b5f73ffffffffffffffffffffffffffffffffffffffff168373ffffffffffffffffffffffffffffffffffffffff16036104e6576040517f08c379a00000000000000000000000000000000000000000000000000000000081526004016104dd906137ef565b60405180910390fd5b3373ffffffffffffffffffffffffffffffffffffffff168373ffffffffffffffffffffffffffffffffffffffff1603610554576040517f08c379a000000000000000000000000000000000000000000000000000000000815260040161054b90613857565b60405180910390fd5b5f8111610596576040517f08c379a000000000000000000000000000000000000000000000000000000000815260040161058d906138bf565b60405180910390fd5b5f6105a033612703565b90505f6105ac85612703565b90506105b8828261278b565b5f60045f8681526020019081526020015f206040518060e00160405290815f8201548152602001600182015f9054906101000a900473ffffffffffffffffffffffffffffffffffffffff1673ffffffffffffffffffffffffffffffffffffffff1673ffffffffffffffffffffffffffffffffffffffff1681526020016002820180546106439061390a565b80601f016020809104026020016040519081016040528092919081815260200182805461066f9061390a565b80156106ba5780601f10610691576101008083540402835291602001916106ba565b820191905f5260205f20905b81548152906001019060200180831161069d57829003601f168201915b50505050508152602001600382015481526020016004820180546106dd9061390a565b80601f01602080910402602001604051908101604052809291908181526020018280546107099061390a565b80156107545780601f1061072b57610100808354040283529160200191610754565b820191905f5260205f20905b81548152906001019060200180831161073757829003601f168201915b505050505081526020016005820154815260200160068201548152505090505f815f0151036107b8576040517f08c379a00000000000000000000000000000000000000000000000000000000081526004016107af90613984565b60405180910390fd5b8360085f8781526020019081526020015f205f3373ffffffffffffffffffffffffffffffffffffffff1673ffffffffffffffffffffffffffffffffffffffff1681526020019081526020015f20541015610847576040517f08c379a000000000000000000000000000000000000000000000000000000000815260040161083e906139ec565b60405180910390fd5b5f60025490506040518060e001604052808281526020013373ffffffffffffffffffffffffffffffffffffffff1681526020018873ffffffffffffffffffffffffffffffffffffffff1681526020018781526020014281526020018681526020015f60028111156108bb576108ba613080565b5b81525060055f8381526020019081526020015f205f820151815f01556020820151816001015f6101000a81548173ffffffffffffffffffffffffffffffffffffffff021916908373ffffffffffffffffffffffffffffffffffffffff1602179055506040820151816002015f6101000a81548173ffffffffffffffffffffffffffffffffffffffff021916908373ffffffffffffffffffffffffffffffffffffffff160217905550606082015181600301556080820151816004015560a0820151816005015560c0820151816006015f6101000a81548160ff021916908360028111156109ab576109aa613080565b5b021790555090505060025f8154809291906109c590613a37565b91905055508673ffffffffffffffffffffffffffffffffffffffff163373ffffffffffffffffffffffffffffffffffffffff16827fc8262dc04f8f56abc884e1f58ca17a373610558a6cebc5e927b9e1c4668e5fdf8989604051610a2a929190613a7e565b60405180910390a450505050505050565b5f60055f8381526020019081526020015f2090505f815f015403610a94576040517f08c379a0000000000000000000000000000000000000000000000000000000008152600401610a8b90613aef565b60405180910390fd5b5f6002811115610aa757610aa6613080565b5b816006015f9054906101000a900460ff166002811115610aca57610ac9613080565b5b14610b0a576040517f08c379a0000000000000000000000000000000000000000000000000000000008152600401610b0190613b57565b60405180910390fd5b806002015f9054906101000a900473ffffffffffffffffffffffffffffffffffffffff1673ffffffffffffffffffffffffffffffffffffffff163373ffffffffffffffffffffffffffffffffffffffff1614610b9b576040517f08c379a0000000000000000000000000000000000000000000000000000000008152600401610b9290613bbf565b60405180910390fd5b6002816006015f6101000a81548160ff02191690836002811115610bc257610bc1613080565b5b0217905550817f1f4f8a94e17d25044030f376d297769c8f9a1a2a0616e36b498a1e7370b5863f60405160405180910390a25050565b5f5f5f9054906101000a900473ffffffffffffffffffffffffffffffffffffffff1673ffffffffffffffffffffffffffffffffffffffff168273ffffffffffffffffffffffffffffffffffffffff16149050919050565b5f60055f8381526020019081526020015f2090505f815f015403610ca8576040517f08c379a0000000000000000000000000000000000000000000000000000000008152600401610c9f90613aef565b60405180910390fd5b5f6002811115610cbb57610cba613080565b5b816006015f9054906101000a900460ff166002811115610cde57610cdd613080565b5b14610d1e576040517f08c379a0000000000000000000000000000000000000000000000000000000008152600401610d1590613b57565b60405180910390fd5b806002015f9054906101000a900473ffffffffffffffffffffffffffffffffffffffff1673ffffffffffffffffffffffffffffffffffffffff163373ffffffffffffffffffffffffffffffffffffffff1614610daf576040517f08c379a0000000000000000000000000000000000000000000000000000000008152600401610da690613c27565b60405180910390fd5b806005015460085f836003015481526020019081526020015f205f836001015f9054906101000a900473ffffffffffffffffffffffffffffffffffffffff1673ffffffffffffffffffffffffffffffffffffffff1673ffffffffffffffffffffffffffffffffffffffff1681526020019081526020015f20541015610e69576040517f08c379a0000000000000000000000000000000000000000000000000000000008152600401610e60906139ec565b60405180910390fd5b806005015460085f836003015481526020019081526020015f205f836001015f9054906101000a900473ffffffffffffffffffffffffffffffffffffffff1673ffffffffffffffffffffffffffffffffffffffff1673ffffffffffffffffffffffffffffffffffffffff1681526020019081526020015f205f828254610eef9190613c45565b92505081905550806005015460085f836003015481526020019081526020015f205f836002015f9054906101000a900473ffffffffffffffffffffffffffffffffffffffff1673ffffffffffffffffffffffffffffffffffffffff1673ffffffffffffffffffffffffffffffffffffffff1681526020019081526020015f205f828254610f7c9190613c78565b925050819055506001816006015f6101000a81548160ff02191690836002811115610faa57610fa9613080565b5b0217905550817f91dd4234b45d77221e6eca52c141569a6d0f3b3ffe9b8a18fe8b9aafbc64b44b60405160405180910390a25050565b60605f5f90505f600190505b6002548110156111af575f60055f8381526020019081526020015f206040518060e00160405290815f8201548152602001600182015f9054906101000a900473ffffffffffffffffffffffffffffffffffffffff1673ffffffffffffffffffffffffffffffffffffffff1673ffffffffffffffffffffffffffffffffffffffff168152602001600282015f9054906101000a900473ffffffffffffffffffffffffffffffffffffffff1673ffffffffffffffffffffffffffffffffffffffff1673ffffffffffffffffffffffffffffffffffffffff168152602001600382015481526020016004820154815260200160058201548152602001600682015f9054906101000a900460ff16600281111561110857611107613080565b5b600281111561111a57611119613080565b5b8152505090508473ffffffffffffffffffffffffffffffffffffffff16816020015173ffffffffffffffffffffffffffffffffffffffff16148061118d57508473ffffffffffffffffffffffffffffffffffffffff16816040015173ffffffffffffffffffffffffffffffffffffffff16145b156111a157828061119d90613a37565b9350505b508080600101915050610fec565b505f8167ffffffffffffffff8111156111cb576111ca613320565b5b6040519080825280602002602001820160405280156111f95781602001602082028036833780820191505090505b5090505f5f90505f600190505b6002548110156113e9575f60055f8381526020019081526020015f206040518060e00160405290815f8201548152602001600182015f9054906101000a900473ffffffffffffffffffffffffffffffffffffffff1673ffffffffffffffffffffffffffffffffffffffff1673ffffffffffffffffffffffffffffffffffffffff168152602001600282015f9054906101000a900473ffffffffffffffffffffffffffffffffffffffff1673ffffffffffffffffffffffffffffffffffffffff1673ffffffffffffffffffffffffffffffffffffffff168152602001600382015481526020016004820154815260200160058201548152602001600682015f9054906101000a900460ff16600281111561132257611321613080565b5b600281111561133457611333613080565b5b8152505090508673ffffffffffffffffffffffffffffffffffffffff16816020015173ffffffffffffffffffffffffffffffffffffffff1614806113a757508673ffffffffffffffffffffffffffffffffffffffff16816040015173ffffffffffffffffffffffffffffffffffffffff16145b156113db57818484815181106113c0576113bf613cab565b5b60200260200101818152505082806113d790613a37565b9350505b508080600101915050611206565b50819350505050919050565b6006602052805f5260405f205f91509050805f015490806001015f9054906101000a900473ffffffffffffffffffffffffffffffffffffffff169080600201805461143f9061390a565b80601f016020809104026020016040519081016040528092919081815260200182805461146b9061390a565b80156114b65780601f1061148d576101008083540402835291602001916114b6565b820191905f5260205f20905b81548152906001019060200180831161149957829003601f168201915b505050505090806003015f9054906101000a900460ff16905084565b6004602052805f5260405f205f91509050805f015490806001015f9054906101000a900473ffffffffffffffffffffffffffffffffffffffff169080600201805461151c9061390a565b80601f01602080910402602001604051908101604052809291908181526020018280546115489061390a565b80156115935780601f1061156a57610100808354040283529160200191611593565b820191905f5260205f20905b81548152906001019060200180831161157657829003601f168201915b5050505050908060030154908060040180546115ae9061390a565b80601f01602080910402602001604051908101604052809291908181526020018280546115da9061390a565b80156116255780601f106115fc57610100808354040283529160200191611625565b820191905f5260205f20905b81548152906001019060200180831161160857829003601f168201915b5050505050908060050154908060060154905087565b60605f5f90505f600190505b6001548110156116c1575f60085f8381526020019081526020015f205f8673ffffffffffffffffffffffffffffffffffffffff1673ffffffffffffffffffffffffffffffffffffffff1681526020019081526020015f205411156116b45781806116b090613a37565b9250505b8080600101915050611647565b505f8167ffffffffffffffff8111156116dd576116dc613320565b5b60405190808252806020026020018201604052801561170b5781602001602082028036833780820191505090505b5090505f5f90505f600190505b6001548110156117b2575f60085f8381526020019081526020015f205f8873ffffffffffffffffffffffffffffffffffffffff1673ffffffffffffffffffffffffffffffffffffffff1681526020019081526020015f205411156117a5578083838151811061178a57611789613cab565b5b60200260200101818152505081806117a190613a37565b9250505b8080600101915050611718565b50819350505050919050565b6117c6612c95565b5f60075f8473ffffffffffffffffffffffffffffffffffffffff1673ffffffffffffffffffffffffffffffffffffffff1681526020019081526020015f205490505f8103611849576040517f08c379a000000000000000000000000000000000000000000000000000000000815260040161184090613d22565b60405180910390fd5b60065f8281526020019081526020015f206040518060800160405290815f8201548152602001600182015f9054906101000a900473ffffffffffffffffffffffffffffffffffffffff1673ffffffffffffffffffffffffffffffffffffffff1673ffffffffffffffffffffffffffffffffffffffff1681526020016002820180546118d39061390a565b80601f01602080910402602001604051908101604052809291908181526020018280546118ff9061390a565b801561194a5780601f106119215761010080835404028352916020019161194a565b820191905f5260205f20905b81548152906001019060200180831161192d57829003601f168201915b50505050508152602001600382015f9054906101000a900460ff16600381111561197757611976613080565b5b600381111561198957611988613080565b5b81525050915050919050565b60015481565b5f5f9054906101000a900473ffffffffffffffffffffffffffffffffffffffff1673ffffffffffffffffffffffffffffffffffffffff163373ffffffffffffffffffffffffffffffffffffffff1614611a29576040517f08c379a0000000000000000000000000000000000000000000000000000000008152600401611a2090613d8a565b60405180910390fd5b5f60075f8473ffffffffffffffffffffffffffffffffffffffff1673ffffffffffffffffffffffffffffffffffffffff1681526020019081526020015f205490505f8103611aac576040517f08c379a0000000000000000000000000000000000000000000000000000000008152600401611aa390613d22565b60405180910390fd5b8160065f8381526020019081526020015f206003015f6101000a81548160ff02191690836003811115611ae257611ae1613080565b5b02179055508273ffffffffffffffffffffffffffffffffffffffff167fb3b609c7a5e504a312603e90d906d1667fd5caff0a840ad07bf5709a3ca1a04583604051611b2d9190613da8565b60405180910390a2505050565b5f60075f3373ffffffffffffffffffffffffffffffffffffffff1673ffffffffffffffffffffffffffffffffffffffff1681526020019081526020015f205414611bb9576040517f08c379a0000000000000000000000000000000000000000000000000000000008152600401611bb090613e0b565b60405180910390fd5b5f600354905060405180608001604052808281526020013373ffffffffffffffffffffffffffffffffffffffff1681526020018381526020015f6003811115611c0557611c04613080565b5b81525060065f8381526020019081526020015f205f820151815f01556020820151816001015f6101000a81548173ffffffffffffffffffffffffffffffffffffffff021916908373ffffffffffffffffffffffffffffffffffffffff1602179055506040820151816002019081611c7c9190613fc9565b506060820151816003015f6101000a81548160ff02191690836003811115611ca757611ca6613080565b5b02179055509050508060075f3373ffffffffffffffffffffffffffffffffffffffff1673ffffffffffffffffffffffffffffffffffffffff1681526020019081526020015f208190555060035f815480929190611d0390613a37565b91905055503373ffffffffffffffffffffffffffffffffffffffff167f713064be2b63db5e6f672d3804bef390205dcf7b58bf7a978b9c31a4d05f39f083604051611d4e9190614098565b60405180910390a25050565b6005602052805f5260405f205f91509050805f015490806001015f9054906101000a900473ffffffffffffffffffffffffffffffffffffffff1690806002015f9054906101000a900473ffffffffffffffffffffffffffffffffffffffff1690806003015490806004015490806005015490806006015f9054906101000a900460ff16905087565b60035481565b6007602052805f5260405f205f915090505481565b60025481565b611e0b612ce2565b5f60055f8481526020019081526020015f206040518060e00160405290815f8201548152602001600182015f9054906101000a900473ffffffffffffffffffffffffffffffffffffffff1673ffffffffffffffffffffffffffffffffffffffff1673ffffffffffffffffffffffffffffffffffffffff168152602001600282015f9054906101000a900473ffffffffffffffffffffffffffffffffffffffff1673ffffffffffffffffffffffffffffffffffffffff1673ffffffffffffffffffffffffffffffffffffffff168152602001600382015481526020016004820154815260200160058201548152602001600682015f9054906101000a900460ff166002811115611f1d57611f1c613080565b5b6002811115611f2f57611f2e613080565b5b8152505090505f815f015103611f7a576040517f08c379a0000000000000000000000000000000000000000000000000000000008152600401611f7190613aef565b60405180910390fd5b80915050919050565b5f611f8d33612703565b9050611fce816040518060400160405280600881526020017f50726f6475636572000000000000000000000000000000000000000000000000815250612aa0565b1561201a575f8214612015576040517f08c379a000000000000000000000000000000000000000000000000000000000815260040161200c90614128565b60405180910390fd5b61227a565b612059816040518060400160405280600781526020017f466163746f727900000000000000000000000000000000000000000000000000815250612aa0565b8061209f575061209e816040518060400160405280600881526020017f52657461696c6572000000000000000000000000000000000000000000000000815250612aa0565b5b15612140575f82036120e6576040517f08c379a00000000000000000000000000000000000000000000000000000000081526004016120dd906141b6565b60405180910390fd5b5f60045f8481526020019081526020015f205f01540361213b576040517f08c379a00000000000000000000000000000000000000000000000000000000081526004016121329061421e565b60405180910390fd5b612279565b61217f816040518060400160405280600881526020017f436f6e73756d6572000000000000000000000000000000000000000000000000815250612aa0565b156121bf576040517f08c379a00000000000000000000000000000000000000000000000000000000081526004016121b690614286565b60405180910390fd5b6121fe816040518060400160405280600581526020017f41646d696e000000000000000000000000000000000000000000000000000000815250612aa0565b1561223e576040517f08c379a0000000000000000000000000000000000000000000000000000000008152600401612235906142ee565b60405180910390fd5b6040517f08c379a000000000000000000000000000000000000000000000000000000000815260040161227090614356565b60405180910390fd5b5b5f84116122bc576040517f08c379a00000000000000000000000000000000000000000000000000000000081526004016122b3906143be565b60405180910390fd5b5f60015490506040518060e001604052808281526020013373ffffffffffffffffffffffffffffffffffffffff1681526020018781526020018681526020018581526020018481526020014281525060045f8381526020019081526020015f205f820151815f01556020820151816001015f6101000a81548173ffffffffffffffffffffffffffffffffffffffff021916908373ffffffffffffffffffffffffffffffffffffffff160217905550604082015181600201908161237f9190613fc9565b5060608201518160030155608082015181600401908161239f9190613fc9565b5060a0820151816005015560c082015181600601559050508460085f8381526020019081526020015f205f3373ffffffffffffffffffffffffffffffffffffffff1673ffffffffffffffffffffffffffffffffffffffff1681526020019081526020015f208190555060015f81548092919061241a90613a37565b91905055503373ffffffffffffffffffffffffffffffffffffffff16817f463ec2a62c46678a81e23cde640446ca4b512f102bb3309cf5a3e2a4ae83146488886040516124689291906143dc565b60405180910390a3505050505050565b612480612d56565b5f60045f8481526020019081526020015f206040518060e00160405290815f8201548152602001600182015f9054906101000a900473ffffffffffffffffffffffffffffffffffffffff1673ffffffffffffffffffffffffffffffffffffffff1673ffffffffffffffffffffffffffffffffffffffff16815260200160028201805461250b9061390a565b80601f01602080910402602001604051908101604052809291908181526020018280546125379061390a565b80156125825780601f1061255957610100808354040283529160200191612582565b820191905f5260205f20905b81548152906001019060200180831161256557829003601f168201915b50505050508152602001600382015481526020016004820180546125a59061390a565b80601f01602080910402602001604051908101604052809291908181526020018280546125d19061390a565b801561261c5780601f106125f35761010080835404028352916020019161261c565b820191905f5260205f20905b8154815290600101906020018083116125ff57829003601f168201915b505050505081526020016005820154815260200160068201548152505090505f815f015103612680576040517f08c379a000000000000000000000000000000000000000000000000000000000815260040161267790613984565b60405180910390fd5b80915050919050565b5f60085f8481526020019081526020015f205f8373ffffffffffffffffffffffffffffffffffffffff1673ffffffffffffffffffffffffffffffffffffffff1681526020019081526020015f2054905092915050565b5f5f9054906101000a900473ffffffffffffffffffffffffffffffffffffffff1681565b61270b612c95565b5f61271583612abe565b90506001600381111561272b5761272a613080565b5b8160600151600381111561274257612741613080565b5b14612782576040517f08c379a000000000000000000000000000000000000000000000000000000000815260040161277990614454565b60405180910390fd5b80915050919050565b6127ca826040518060400160405280600881526020017f50726f6475636572000000000000000000000000000000000000000000000000815250612aa0565b156128525761280e816040518060400160405280600781526020017f466163746f727900000000000000000000000000000000000000000000000000815250612aa0565b61284d576040517f08c379a0000000000000000000000000000000000000000000000000000000008152600401612844906144e2565b60405180910390fd5b612a9c565b612891826040518060400160405280600781526020017f466163746f727900000000000000000000000000000000000000000000000000815250612aa0565b15612919576128d5816040518060400160405280600881526020017f52657461696c6572000000000000000000000000000000000000000000000000815250612aa0565b612914576040517f08c379a000000000000000000000000000000000000000000000000000000000815260040161290b90614570565b60405180910390fd5b612a9b565b612958826040518060400160405280600881526020017f52657461696c6572000000000000000000000000000000000000000000000000815250612aa0565b156129e05761299c816040518060400160405280600881526020017f436f6e73756d6572000000000000000000000000000000000000000000000000815250612aa0565b6129db576040517f08c379a00000000000000000000000000000000000000000000000000000000081526004016129d2906145fe565b60405180910390fd5b612a9a565b612a1f826040518060400160405280600881526020017f436f6e73756d6572000000000000000000000000000000000000000000000000815250612aa0565b15612a5f576040517f08c379a0000000000000000000000000000000000000000000000000000000008152600401612a5690614666565b60405180910390fd5b6040517f08c379a0000000000000000000000000000000000000000000000000000000008152600401612a91906146ce565b60405180910390fd5b5b5b5050565b5f818051906020012083604001518051906020012014905092915050565b612ac6612c95565b5f60075f8473ffffffffffffffffffffffffffffffffffffffff1673ffffffffffffffffffffffffffffffffffffffff1681526020019081526020015f205490505f8103612b49576040517f08c379a0000000000000000000000000000000000000000000000000000000008152600401612b4090613d22565b60405180910390fd5b60065f8281526020019081526020015f206040518060800160405290815f8201548152602001600182015f9054906101000a900473ffffffffffffffffffffffffffffffffffffffff1673ffffffffffffffffffffffffffffffffffffffff1673ffffffffffffffffffffffffffffffffffffffff168152602001600282018054612bd39061390a565b80601f0160208091040260200160405190810160405280929190818152602001828054612bff9061390a565b8015612c4a5780601f10612c2157610100808354040283529160200191612c4a565b820191905f5260205f20905b815481529060010190602001808311612c2d57829003601f168201915b50505050508152602001600382015f9054906101000a900460ff166003811115612c7757612c76613080565b5b6003811115612c8957612c88613080565b5b81525050915050919050565b60405180608001604052805f81526020015f73ffffffffffffffffffffffffffffffffffffffff168152602001606081526020015f6003811115612cdc57612cdb613080565b5b81525090565b6040518060e001604052805f81526020015f73ffffffffffffffffffffffffffffffffffffffff1681526020015f73ffffffffffffffffffffffffffffffffffffffff1681526020015f81526020015f81526020015f81526020015f6002811115612d5057612d4f613080565b5b81525090565b6040518060e001604052805f81526020015f73ffffffffffffffffffffffffffffffffffffffff168152602001606081526020015f8152602001606081526020015f81526020015f81525090565b5f604051905090565b5f5ffd5b5f5ffd5b5f73ffffffffffffffffffffffffffffffffffffffff82169050919050565b5f612dde82612db5565b9050919050565b612dee81612dd4565b8114612df8575f5ffd5b50565b5f81359050612e0981612de5565b92915050565b5f819050919050565b612e2181612e0f565b8114612e2b575f5ffd5b50565b5f81359050612e3c81612e18565b92915050565b5f5f5f60608486031215612e5957612e58612dad565b5b5f612e6686828701612dfb565b9350506020612e7786828701612e2e565b9250506040612e8886828701612e2e565b9150509250925092565b5f60208284031215612ea757612ea6612dad565b5b5f612eb484828501612e2e565b91505092915050565b5f60208284031215612ed257612ed1612dad565b5b5f612edf84828501612dfb565b91505092915050565b5f8115159050919050565b612efc81612ee8565b82525050565b5f602082019050612f155f830184612ef3565b92915050565b5f81519050919050565b5f82825260208201905092915050565b5f819050602082019050919050565b612f4d81612e0f565b82525050565b5f612f5e8383612f44565b60208301905092915050565b5f602082019050919050565b5f612f8082612f1b565b612f8a8185612f25565b9350612f9583612f35565b805f5b83811015612fc5578151612fac8882612f53565b9750612fb783612f6a565b925050600181019050612f98565b5085935050505092915050565b5f6020820190508181035f830152612fea8184612f76565b905092915050565b612ffb81612e0f565b82525050565b61300a81612dd4565b82525050565b5f81519050919050565b5f82825260208201905092915050565b8281835e5f83830152505050565b5f601f19601f8301169050919050565b5f61305282613010565b61305c818561301a565b935061306c81856020860161302a565b61307581613038565b840191505092915050565b7f4e487b71000000000000000000000000000000000000000000000000000000005f52602160045260245ffd5b600481106130be576130bd613080565b5b50565b5f8190506130ce826130ad565b919050565b5f6130dd826130c1565b9050919050565b6130ed816130d3565b82525050565b5f6080820190506131065f830187612ff2565b6131136020830186613001565b81810360408301526131258185613048565b905061313460608301846130e4565b95945050505050565b5f60e0820190506131505f83018a612ff2565b61315d6020830189613001565b818103604083015261316f8188613048565b905061317e6060830187612ff2565b81810360808301526131908186613048565b905061319f60a0830185612ff2565b6131ac60c0830184612ff2565b98975050505050505050565b6131c181612dd4565b82525050565b5f82825260208201905092915050565b5f6131e182613010565b6131eb81856131c7565b93506131fb81856020860161302a565b61320481613038565b840191505092915050565b613218816130d3565b82525050565b5f608083015f8301516132335f860182612f44565b50602083015161324660208601826131b8565b506040830151848203604086015261325e82826131d7565b9150506060830151613273606086018261320f565b508091505092915050565b5f6020820190508181035f830152613296818461321e565b905092915050565b5f6020820190506132b15f830184612ff2565b92915050565b600481106132c3575f5ffd5b50565b5f813590506132d4816132b7565b92915050565b5f5f604083850312156132f0576132ef612dad565b5b5f6132fd85828601612dfb565b925050602061330e858286016132c6565b9150509250929050565b5f5ffd5b5f5ffd5b7f4e487b71000000000000000000000000000000000000000000000000000000005f52604160045260245ffd5b61335682613038565b810181811067ffffffffffffffff8211171561337557613374613320565b5b80604052505050565b5f613387612da4565b9050613393828261334d565b919050565b5f67ffffffffffffffff8211156133b2576133b1613320565b5b6133bb82613038565b9050602081019050919050565b828183375f83830152505050565b5f6133e86133e384613398565b61337e565b9050828152602081018484840111156134045761340361331c565b5b61340f8482856133c8565b509392505050565b5f82601f83011261342b5761342a613318565b5b813561343b8482602086016133d6565b91505092915050565b5f6020828403121561345957613458612dad565b5b5f82013567ffffffffffffffff81111561347657613475612db1565b5b61348284828501613417565b91505092915050565b6003811061349c5761349b613080565b5b50565b5f8190506134ac8261348b565b919050565b5f6134bb8261349f565b9050919050565b6134cb816134b1565b82525050565b5f60e0820190506134e45f83018a612ff2565b6134f16020830189613001565b6134fe6040830188613001565b61350b6060830187612ff2565b6135186080830186612ff2565b61352560a0830185612ff2565b61353260c08301846134c2565b98975050505050505050565b613547816134b1565b82525050565b60e082015f8201516135615f850182612f44565b50602082015161357460208501826131b8565b50604082015161358760408501826131b8565b50606082015161359a6060850182612f44565b5060808201516135ad6080850182612f44565b5060a08201516135c060a0850182612f44565b5060c08201516135d360c085018261353e565b50505050565b5f60e0820190506135ec5f83018461354d565b92915050565b5f5f5f5f6080858703121561360a57613609612dad565b5b5f85013567ffffffffffffffff81111561362757613626612db1565b5b61363387828801613417565b945050602061364487828801612e2e565b935050604085013567ffffffffffffffff81111561366557613664612db1565b5b61367187828801613417565b925050606061368287828801612e2e565b91505092959194509250565b5f60e083015f8301516136a35f860182612f44565b5060208301516136b660208601826131b8565b50604083015184820360408601526136ce82826131d7565b91505060608301516136e36060860182612f44565b50608083015184820360808601526136fb82826131d7565b91505060a083015161371060a0860182612f44565b5060c083015161372360c0860182612f44565b508091505092915050565b5f6020820190508181035f830152613746818461368e565b905092915050565b5f5f6040838503121561376457613763612dad565b5b5f61377185828601612e2e565b925050602061378285828601612dfb565b9150509250929050565b5f60208201905061379f5f830184613001565b92915050565b7f496e76616c696420726563697069656e740000000000000000000000000000005f82015250565b5f6137d960118361301a565b91506137e4826137a5565b602082019050919050565b5f6020820190508181035f830152613806816137cd565b9050919050565b7f43616e6e6f74207472616e7366657220746f2073656c660000000000000000005f82015250565b5f61384160178361301a565b915061384c8261380d565b602082019050919050565b5f6020820190508181035f83015261386e81613835565b9050919050565b7f416d6f756e74206d757374206265203e203000000000000000000000000000005f82015250565b5f6138a960128361301a565b91506138b482613875565b602082019050919050565b5f6020820190508181035f8301526138d68161389d565b9050919050565b7f4e487b71000000000000000000000000000000000000000000000000000000005f52602260045260245ffd5b5f600282049050600182168061392157607f821691505b602082108103613934576139336138dd565b5b50919050565b7f546f6b656e206e6f7420666f756e6400000000000000000000000000000000005f82015250565b5f61396e600f8361301a565b91506139798261393a565b602082019050919050565b5f6020820190508181035f83015261399b81613962565b9050919050565b7f496e73756666696369656e742062616c616e63650000000000000000000000005f82015250565b5f6139d660148361301a565b91506139e1826139a2565b602082019050919050565b5f6020820190508181035f830152613a03816139ca565b9050919050565b7f4e487b71000000000000000000000000000000000000000000000000000000005f52601160045260245ffd5b5f613a4182612e0f565b91507fffffffffffffffffffffffffffffffffffffffffffffffffffffffffffffffff8203613a7357613a72613a0a565b5b600182019050919050565b5f604082019050613a915f830185612ff2565b613a9e6020830184612ff2565b9392505050565b7f5472616e73666572206e6f7420666f756e6400000000000000000000000000005f82015250565b5f613ad960128361301a565b9150613ae482613aa5565b602082019050919050565b5f6020820190508181035f830152613b0681613acd565b9050919050565b7f5472616e7366657220616c72656164792070726f6365737365640000000000005f82015250565b5f613b41601a8361301a565b9150613b4c82613b0d565b602082019050919050565b5f6020820190508181035f830152613b6e81613b35565b9050919050565b7f4f6e6c792072656365697665722063616e2072656a65637400000000000000005f82015250565b5f613ba960188361301a565b9150613bb482613b75565b602082019050919050565b5f6020820190508181035f830152613bd681613b9d565b9050919050565b7f4f6e6c792072656365697665722063616e2061636365707400000000000000005f82015250565b5f613c1160188361301a565b9150613c1c82613bdd565b602082019050919050565b5f6020820190508181035f830152613c3e81613c05565b9050919050565b5f613c4f82612e0f565b9150613c5a83612e0f565b9250828203905081811115613c7257613c71613a0a565b5b92915050565b5f613c8282612e0f565b9150613c8d83612e0f565b9250828201905080821115613ca557613ca4613a0a565b5b92915050565b7f4e487b71000000000000000000000000000000000000000000000000000000005f52603260045260245ffd5b7f55736572206e6f7420666f756e640000000000000000000000000000000000005f82015250565b5f613d0c600e8361301a565b9150613d1782613cd8565b602082019050919050565b5f6020820190508181035f830152613d3981613d00565b9050919050565b7f4f6e6c792061646d696e000000000000000000000000000000000000000000005f82015250565b5f613d74600a8361301a565b9150613d7f82613d40565b602082019050919050565b5f6020820190508181035f830152613da181613d68565b9050919050565b5f602082019050613dbb5f8301846130e4565b92915050565b7f5573657220616c726561647920657869737473000000000000000000000000005f82015250565b5f613df560138361301a565b9150613e0082613dc1565b602082019050919050565b5f6020820190508181035f830152613e2281613de9565b9050919050565b5f819050815f5260205f209050919050565b5f6020601f8301049050919050565b5f82821b905092915050565b5f60088302613e857fffffffffffffffffffffffffffffffffffffffffffffffffffffffffffffffff82613e4a565b613e8f8683613e4a565b95508019841693508086168417925050509392505050565b5f819050919050565b5f613eca613ec5613ec084612e0f565b613ea7565b612e0f565b9050919050565b5f819050919050565b613ee383613eb0565b613ef7613eef82613ed1565b848454613e56565b825550505050565b5f5f905090565b613f0e613eff565b613f19818484613eda565b505050565b5b81811015613f3c57613f315f82613f06565b600181019050613f1f565b5050565b601f821115613f8157613f5281613e29565b613f5b84613e3b565b81016020851015613f6a578190505b613f7e613f7685613e3b565b830182613f1e565b50505b505050565b5f82821c905092915050565b5f613fa15f1984600802613f86565b1980831691505092915050565b5f613fb98383613f92565b9150826002028217905092915050565b613fd282613010565b67ffffffffffffffff811115613feb57613fea613320565b5b613ff5825461390a565b614000828285613f40565b5f60209050601f831160018114614031575f841561401f578287015190505b6140298582613fae565b865550614090565b601f19841661403f86613e29565b5f5b8281101561406657848901518255600182019150602085019450602081019050614041565b86831015614083578489015161407f601f891682613f92565b8355505b6001600288020188555050505b505050505050565b5f6020820190508181035f8301526140b08184613048565b905092915050565b7f50726f647563657220746f6b656e73206d7573742068617665206e6f207061725f8201527f656e740000000000000000000000000000000000000000000000000000000000602082015250565b5f61411260238361301a565b915061411d826140b8565b604082019050919050565b5f6020820190508181035f83015261413f81614106565b9050919050565b7f4465726976656420746f6b656e73206d7573742068617665206120706172656e5f8201527f7400000000000000000000000000000000000000000000000000000000000000602082015250565b5f6141a060218361301a565b91506141ab82614146565b604082019050919050565b5f6020820190508181035f8301526141cd81614194565b9050919050565b7f506172656e7420746f6b656e20646f6573206e6f7420657869737400000000005f82015250565b5f614208601b8361301a565b9150614213826141d4565b602082019050919050565b5f6020820190508181035f830152614235816141fc565b9050919050565b7f436f6e73756d65722063616e6e6f742063726561746520746f6b656e730000005f82015250565b5f614270601d8361301a565b915061427b8261423c565b602082019050919050565b5f6020820190508181035f83015261429d81614264565b9050919050565b7f41646d696e2063616e6e6f742063726561746520746f6b656e730000000000005f82015250565b5f6142d8601a8361301a565b91506142e3826142a4565b602082019050919050565b5f6020820190508181035f830152614305816142cc565b9050919050565b7f496e76616c696420726f6c6500000000000000000000000000000000000000005f82015250565b5f614340600c8361301a565b915061434b8261430c565b602082019050919050565b5f6020820190508181035f83015261436d81614334565b9050919050565b7f546f74616c20737570706c79206d757374206265203e203000000000000000005f82015250565b5f6143a860188361301a565b91506143b382614374565b602082019050919050565b5f6020820190508181035f8301526143d58161439c565b9050919050565b5f6040820190508181035f8301526143f48185613048565b90506144036020830184612ff2565b9392505050565b7f55736572206e6f7420617070726f7665640000000000000000000000000000005f82015250565b5f61443e60118361301a565b91506144498261440a565b602082019050919050565b5f6020820190508181035f83015261446b81614432565b9050919050565b7f50726f64756365722063616e206f6e6c79207472616e7366657220746f2046615f8201527f63746f7279000000000000000000000000000000000000000000000000000000602082015250565b5f6144cc60258361301a565b91506144d782614472565b604082019050919050565b5f6020820190508181035f8301526144f9816144c0565b9050919050565b7f466163746f72792063616e206f6e6c79207472616e7366657220746f205265745f8201527f61696c6572000000000000000000000000000000000000000000000000000000602082015250565b5f61455a60258361301a565b915061456582614500565b604082019050919050565b5f6020820190508181035f8301526145878161454e565b9050919050565b7f52657461696c65722063616e206f6e6c79207472616e7366657220746f20436f5f8201527f6e73756d65720000000000000000000000000000000000000000000000000000602082015250565b5f6145e860268361301a565b91506145f38261458e565b604082019050919050565b5f6020820190508181035f830152614615816145dc565b9050919050565b7f436f6e73756d65722063616e6e6f74207472616e7366657200000000000000005f82015250565b5f61465060188361301a565b915061465b8261461c565b602082019050919050565b5f6020820190508181035f83015261467d81614644565b9050919050565b7f496e76616c69642066726f6d20726f6c650000000000000000000000000000005f82015250565b5f6146b860118361301a565b91506146c382614684565b602082019050919050565b5f6020820190508181035f8301526146e5816146ac565b905091905056fea2646970667358221220f0a0008bda2e6b02992d9f8f06212b3d539b646049ed73c49f4a1e3b88b2553e64736f6c634300081e0033","linkReferences":{}},"methodIdentifiers":{"acceptTransfer(uint256)":"274fae7c","addressToUserId(address)":"b5ffbbcc","admin()":"f851a440","changeStatusUser(address,uint8)":"8782dc00","createToken(string,uint256,string,uint256)":"d67b2d08","getToken(uint256)":"e4b50cb8","getTokenBalance(uint256,address)":"ef57e2d2","getTransfer(uint256)":"c16fe907","getUserInfo(address)":"6386c1c7","getUserTokens(address)":"519dc8d2","getUserTransfers(address)":"335d3410","isAdmin(address)":"24d7806c","nextTokenId()":"75794a3c","nextTransferId()":"b85b381b","nextUserId()":"a1e6a255","rejectTransfer(uint256)":"12effc32","requestUserRole(string)":"8b2d19c0","tokens(uint256)":"4f64b2be","transfer(address,uint256,uint256)":"095bcdb6","transfers(uint256)":"9377d711","users(uint256)":"365b98b2"},"id":19}